{
  "_format": "hh-sol-artifact-1",
  "contractName": "NotePlayground",
  "sourceName": "contracts/NotePlayground.sol",
  "abi": [
    {
      "inputs": [],
      "stateMutability": "nonpayable",
      "type": "constructor"
    },
    {
      "inputs": [
        {
          "internalType": "string",
          "name": "_src",
          "type": "string"
        },
        {
          "internalType": "string",
          "name": "_title",
          "type": "string"
        },
        {
          "internalType": "string",
          "name": "_content",
          "type": "string"
        }
      ],
      "name": "addNote",
      "outputs": [],
      "stateMutability": "nonpayable",
      "type": "function"
    },
    {
      "inputs": [],
      "name": "getAllNotes",
      "outputs": [
        {
          "components": [
            {
              "internalType": "uint256",
              "name": "id",
              "type": "uint256"
            },
            {
              "internalType": "string",
              "name": "src",
              "type": "string"
            },
            {
              "internalType": "string",
              "name": "title",
              "type": "string"
            },
            {
              "internalType": "string",
              "name": "content",
              "type": "string"
            },
            {
              "internalType": "address",
              "name": "owner",
              "type": "address"
            }
          ],
          "internalType": "struct NotePlayground.Note[]",
          "name": "",
          "type": "tuple[]"
        }
      ],
      "stateMutability": "view",
      "type": "function"
    },
    {
      "inputs": [],
      "name": "noteCount",
      "outputs": [
        {
          "internalType": "uint256",
          "name": "",
          "type": "uint256"
        }
      ],
      "stateMutability": "view",
      "type": "function"
    },
    {
      "inputs": [
        {
          "internalType": "uint256",
          "name": "",
          "type": "uint256"
        }
      ],
      "name": "notes",
      "outputs": [
        {
          "internalType": "uint256",
          "name": "id",
          "type": "uint256"
        },
        {
          "internalType": "string",
          "name": "src",
          "type": "string"
        },
        {
          "internalType": "string",
          "name": "title",
          "type": "string"
        },
        {
          "internalType": "string",
          "name": "content",
          "type": "string"
        },
        {
          "internalType": "address",
          "name": "owner",
          "type": "address"
        }
      ],
      "stateMutability": "view",
      "type": "function"
    },
    {
      "inputs": [],
      "name": "test",
      "outputs": [
        {
          "internalType": "uint256",
          "name": "",
          "type": "uint256"
        }
      ],
      "stateMutability": "view",
      "type": "function"
    }
  ],
  "bytecode": "0x6080604052600080553480156200001557600080fd5b50620000c86040518060400160405280600b81526020017f7465737420736f757263650000000000000000000000000000000000000000008152506040518060400160405280600581526020017f7469746c650000000000000000000000000000000000000000000000000000008152506040518060400160405280600781526020017f636f6e74656e7400000000000000000000000000000000000000000000000000815250620000d560201b60201c565b6000808190555062000393565b6040518060a0016040528060005481526020018481526020018381526020018281526020013373ffffffffffffffffffffffffffffffffffffffff16815250600160008054815260200190815260200160002060008201518160000155602082015181600101908051906020019062000150929190620001f7565b5060408201518160020190805190602001906200016f929190620001f7565b5060608201518160030190805190602001906200018e929190620001f7565b5060808201518160040160006101000a81548173ffffffffffffffffffffffffffffffffffffffff021916908373ffffffffffffffffffffffffffffffffffffffff160217905550905050600080815480929190620001ed90620002e7565b9190505550505050565b8280546200020590620002b1565b90600052602060002090601f01602090048101928262000229576000855562000275565b82601f106200024457805160ff191683800117855562000275565b8280016001018555821562000275579182015b828111156200027457825182559160200191906001019062000257565b5b50905062000284919062000288565b5090565b5b80821115620002a357600081600090555060010162000289565b5090565b6000819050919050565b60006002820490506001821680620002ca57607f821691505b60208210811415620002e157620002e062000364565b5b50919050565b6000620002f482620002a7565b91507fffffffffffffffffffffffffffffffffffffffffffffffffffffffffffffffff8214156200032a576200032962000335565b5b600182019050919050565b7f4e487b7100000000000000000000000000000000000000000000000000000000600052601160045260246000fd5b7f4e487b7100000000000000000000000000000000000000000000000000000000600052602260045260246000fd5b610e9480620003a36000396000f3fe608060405234801561001057600080fd5b50600436106100575760003560e01c8063041c80d51461005c578063317a4c761461007857806361c3a7e614610096578063de8f430c146100ca578063f8a8fd6d146100e8575b600080fd5b610076600480360381019061007191906108a3565b610106565b005b610080610220565b60405161008d9190610b40565b60405180910390f35b6100b060048036038101906100ab919061093a565b610226565b6040516100c1959493929190610b5b565b60405180910390f35b6100d2610414565b6040516100df9190610b1e565b60405180910390f35b6100f0610735565b6040516100fd9190610b40565b60405180910390f35b6040518060a0016040528060005481526020018481526020018381526020018281526020013373ffffffffffffffffffffffffffffffffffffffff16815250600160008054815260200190815260200160002060008201518160000155602082015181600101908051906020019061017f92919061073e565b50604082015181600201908051906020019061019c92919061073e565b5060608201518160030190805190602001906101b992919061073e565b5060808201518160040160006101000a81548173ffffffffffffffffffffffffffffffffffffffff021916908373ffffffffffffffffffffffffffffffffffffffff16021790555090505060008081548092919061021690610d60565b9190505550505050565b60005481565b600160205280600052604060002060009150905080600001549080600101805461024f90610cfd565b80601f016020809104026020016040519081016040528092919081815260200182805461027b90610cfd565b80156102c85780601f1061029d576101008083540402835291602001916102c8565b820191906000526020600020905b8154815290600101906020018083116102ab57829003601f168201915b5050505050908060020180546102dd90610cfd565b80601f016020809104026020016040519081016040528092919081815260200182805461030990610cfd565b80156103565780601f1061032b57610100808354040283529160200191610356565b820191906000526020600020905b81548152906001019060200180831161033957829003601f168201915b50505050509080600301805461036b90610cfd565b80601f016020809104026020016040519081016040528092919081815260200182805461039790610cfd565b80156103e45780601f106103b9576101008083540402835291602001916103e4565b820191906000526020600020905b8154815290600101906020018083116103c757829003601f168201915b5050505050908060040160009054906101000a900473ffffffffffffffffffffffffffffffffffffffff16905085565b60606000805467ffffffffffffffff811115610459577f4e487b7100000000000000000000000000000000000000000000000000000000600052604160045260246000fd5b60405190808252806020026020018201604052801561049257816020015b61047f6107c4565b8152602001906001900390816104775790505b50905060005b60005481101561072d57600160008281526020019081526020016000206040518060a0016040529081600082015481526020016001820180546104da90610cfd565b80601f016020809104026020016040519081016040528092919081815260200182805461050690610cfd565b80156105535780601f1061052857610100808354040283529160200191610553565b820191906000526020600020905b81548152906001019060200180831161053657829003601f168201915b5050505050815260200160028201805461056c90610cfd565b80601f016020809104026020016040519081016040528092919081815260200182805461059890610cfd565b80156105e55780601f106105ba576101008083540402835291602001916105e5565b820191906000526020600020905b8154815290600101906020018083116105c857829003601f168201915b505050505081526020016003820180546105fe90610cfd565b80601f016020809104026020016040519081016040528092919081815260200182805461062a90610cfd565b80156106775780601f1061064c57610100808354040283529160200191610677565b820191906000526020600020905b81548152906001019060200180831161065a57829003601f168201915b505050505081526020016004820160009054906101000a900473ffffffffffffffffffffffffffffffffffffffff1673ffffffffffffffffffffffffffffffffffffffff1673ffffffffffffffffffffffffffffffffffffffff168152505082828151811061070f577f4e487b7100000000000000000000000000000000000000000000000000000000600052603260045260246000fd5b6020026020010181905250808061072590610d60565b915050610498565b508091505090565b60008054905090565b82805461074a90610cfd565b90600052602060002090601f01602090048101928261076c57600085556107b3565b82601f1061078557805160ff19168380011785556107b3565b828001600101855582156107b3579182015b828111156107b2578251825591602001919060010190610797565b5b5090506107c09190610809565b5090565b6040518060a0016040528060008152602001606081526020016060815260200160608152602001600073ffffffffffffffffffffffffffffffffffffffff1681525090565b5b8082111561082257600081600090555060010161080a565b5090565b600061083961083484610be8565b610bc3565b90508281526020810184848401111561085157600080fd5b61085c848285610cbb565b509392505050565b600082601f83011261087557600080fd5b8135610885848260208601610826565b91505092915050565b60008135905061089d81610e47565b92915050565b6000806000606084860312156108b857600080fd5b600084013567ffffffffffffffff8111156108d257600080fd5b6108de86828701610864565b935050602084013567ffffffffffffffff8111156108fb57600080fd5b61090786828701610864565b925050604084013567ffffffffffffffff81111561092457600080fd5b61093086828701610864565b9150509250925092565b60006020828403121561094c57600080fd5b600061095a8482850161088e565b91505092915050565b600061096f8383610a7c565b905092915050565b61098081610c7f565b82525050565b61098f81610c7f565b82525050565b60006109a082610c29565b6109aa8185610c4c565b9350836020820285016109bc85610c19565b8060005b858110156109f857848403895281516109d98582610963565b94506109e483610c3f565b925060208a019950506001810190506109c0565b50829750879550505050505092915050565b6000610a1582610c34565b610a1f8185610c5d565b9350610a2f818560208601610cca565b610a3881610e36565b840191505092915050565b6000610a4e82610c34565b610a588185610c6e565b9350610a68818560208601610cca565b610a7181610e36565b840191505092915050565b600060a083016000830151610a946000860182610b00565b5060208301518482036020860152610aac8282610a0a565b91505060408301518482036040860152610ac68282610a0a565b91505060608301518482036060860152610ae08282610a0a565b9150506080830151610af56080860182610977565b508091505092915050565b610b0981610cb1565b82525050565b610b1881610cb1565b82525050565b60006020820190508181036000830152610b388184610995565b905092915050565b6000602082019050610b556000830184610b0f565b92915050565b600060a082019050610b706000830188610b0f565b8181036020830152610b828187610a43565b90508181036040830152610b968186610a43565b90508181036060830152610baa8185610a43565b9050610bb96080830184610986565b9695505050505050565b6000610bcd610bde565b9050610bd98282610d2f565b919050565b6000604051905090565b600067ffffffffffffffff821115610c0357610c02610e07565b5b610c0c82610e36565b9050602081019050919050565b6000819050602082019050919050565b600081519050919050565b600081519050919050565b6000602082019050919050565b600082825260208201905092915050565b600082825260208201905092915050565b600082825260208201905092915050565b6000610c8a82610c91565b9050919050565b600073ffffffffffffffffffffffffffffffffffffffff82169050919050565b6000819050919050565b82818337600083830152505050565b60005b83811015610ce8578082015181840152602081019050610ccd565b83811115610cf7576000848401525b50505050565b60006002820490506001821680610d1557607f821691505b60208210811415610d2957610d28610dd8565b5b50919050565b610d3882610e36565b810181811067ffffffffffffffff82111715610d5757610d56610e07565b5b80604052505050565b6000610d6b82610cb1565b91507fffffffffffffffffffffffffffffffffffffffffffffffffffffffffffffffff821415610d9e57610d9d610da9565b5b600182019050919050565b7f4e487b7100000000000000000000000000000000000000000000000000000000600052601160045260246000fd5b7f4e487b7100000000000000000000000000000000000000000000000000000000600052602260045260246000fd5b7f4e487b7100000000000000000000000000000000000000000000000000000000600052604160045260246000fd5b6000601f19601f8301169050919050565b610e5081610cb1565b8114610e5b57600080fd5b5056fea26469706673582212209107cdd0226d7e3c7eca41507dd47ebedf75be6417729717fb58f9fce2e38bd664736f6c63430008040033",
  "linkReferences": {},
  "deployedLinkReferences": {}
}